{
    "contractName": "Token",
    "abi": [
        {
            "constant": true,
            "inputs": [],
            "name": "totalSupply",
            "outputs": [
                {
                    "internalType": "uint256",
                    "name": "",
                    "type": "uint256"
                }
            ],
            "payable": false,
            "stateMutability": "view",
            "type": "function"
        }
    ],
    "bytecode": "6080604052348015600f57600080fd5b5060808061001e6000396000f3fe6080604052348015600f57600080fd5b506004361060285760003560e01c806318160ddd14602d575b600080fd5b60336045565b60408051918252519081900360200190f35b6000548156fea265627a7a723158202275a03c17ae7a4ffb5eec53bdf4158f1c50cc3c4fac7ebefff84827198a37aa64736f6c634300050c0032",
    "sourcePath": "e:/Vishwas/Blockchain/tokenSale/contracts/Token.sol",
    "compiler": {
        "name": "solc",
        "version": "0.5.12+commit.7709ece9"
    },
    "functionHashes": {
        "totalSupply()": "18160ddd"
    },
    "gasEstimates": {
        "creation": {
            "codeDepositCost": "25600",
            "executionCost": "75",
            "totalCost": "25675"
        },
        "external": {
            "totalSupply()": "376"
        }
    }
}